:020000040001F9
:10C00000707C002005C501000DC501000FC50100B1
:10C0100011C5010013C5010015C501000000000095
:10C0200000000000000000000000000017C5010033
:10C0300019C50100000000001BC501001DC501005D
:10C040001FC501001FC50100E1D101001FC501008E
:10C050001FC501001FC50100D5CB010045CE010061
:10C060001FC501001FC501001FC50100FDCD010056
:10C070001FC501001FC501001FC501001FC501002C
:10C080001FC5010011CE01001FC501001FC5010021
:10C090001DCF01001FC5010025CF01001FC50100F4
:10C0A0001FC501001FC50100B1D10100C9D10100A8
:10C0B0001FC501001FC501000000000000000000B6
:10C0C0001FC501001FC501001FC501001FC50100DC
:10C0D0001FC501001FC501001FC5010000000000B1
:10C0E0000000000000000000000000000000000050
:10C0F0000000000000000000000000000000000040
:10C10000000000000000000000000000000000002F
:10C11000000000000000000000000000000000001F
:10C40000DFF80CD000F01AFB0048004709030200D7
:10C41000707C0020401E00BF00BF00BF00BF00BFF7
:10C4200000BF00BF00BF00BF00BF00BF00BF00BF14
:10C4300000BF00BF00BF00BF00BF00BF00BF00BF04
:10C4400000BF00BF00BF00BF00BF00BF00BF00BFF4
:10C4500000BF00BF00BF00BF00BF00BF00BF00BFE4
:10C4600000BF00BF00BF00BF00BF00BF00BF00BFD4
:10C4700000BF00BF00BF00BF00BF00BF00BF00BFC4
:10C4800000BF00BF00BFC5D170470000401E00BF05
:10C4900000BF00BF00BF00BF00BF00BF00BF00BFA4
:10C4A00000BF00BF00BF00BF00BF00BF00BF00BF94
:10C4B00000BF00BF00BF00BF00BF00BF00BF00BF84
:10C4C00000BF00BF00BF00BF00BF00BF00BF00BF74
:10C4D00000BF00BF00BF00BF00BF00BF00BF00BF64
:10C4E00000BF00BF00BF00BF00BF00BF00BF00BF54
:10C4F00000BF00BF00BF00BF00BF00BF00BFC5D16D
:10C50000704700000648804706480047FEE7FEE700
:10C51000FEE7FEE7FEE7FEE7FEE7FEE7FEE7FEE7F3
:10C5200065CF010001C4010040EA01039B0703D06D
:10C5300009E008C9121F08C0042AFAD203E011F862
:10C54000013B00F8013B521EF9D27047D2B201E024
:10C5500000F8012B491EFBD270470022F6E710B508
:10C5600013460A4604461946FFF7F0FF204610BD61
:10C5700000F0004230F000400AD0C10D01F56071BA
:10C58000C0F3160042EA0151C20840071143704748
:10C5900000200146704701F0004330B421F0004113
:10C5A00050EA010206D00A0DA2F56072C1F3130130
:10C5B000002A02DC30BC00207047440F44EAC1046A
:10C5C000C100E01830BC00EBC25000F047B830B5F5
:10C5D0000B46014600202022012409E021FA02F541
:10C5E0009D4205D303FA02F5491B04FA02F52844DB
:10C5F000151EA2F10102F1DC30BD2DE9F05F054608
:10C60000002092469B4688460646814640241BE011
:10C61000284641464746224600F031FA53465A46DC
:10C62000C01A914110D311461846224600F018FA5C
:10C630002D1A67EB01084F4622460120002100F029
:10C640000FFA17EB00094E41201EA4F10104DFDCB4
:10C65000484631462A464346BDE8F09F0029A8BF18
:10C660007047401C490008BF20F00100704710B41B
:10C67000B0FA80FC00FA0CF050EA010404BF10BCD0
:10C68000704749B1CCF1200421FA04F411FA0CF1FD
:10C6900018BF012121430843A3EB0C01CB1D4FEA36
:10C6A00000614FEA102042BF002010BC704700EB31
:10C6B000C35010440029A4BF10BC7047401C49005F
:10C6C00008BF20F0010010BC70472DE9FE4F8046E6
:10C6D00081EA0300C00F0C46009021F0004123F0D6
:10C6E0000045B8EB0200A94105D2404621469046DC
:10C6F0001C460B46024623F00040104347D0270D4E
:10C70000C7F30A00C3F30A510290401A019040286F
:10C710006BDAC3F3130040F4801B0098924620B1FB
:10C720000023D2EB030A63EB0B0B01985946C0F1CF
:10C730004002504600F094F906460D4650465946D0
:10C74000019A00F0ACF910EB08006141002487EA7F
:10C75000115284EAE7731A4340D0009A62B3019AF7
:10C76000012A4FEA075215DC001B61EB02014FF072
:10C77000004202EA0752CDE90042001C41F5801157
:10C7800032462B4600F0ACF903B0BDE8F08F4046CE
:10C790002146F9E7001B61EB0201001C41F5801303
:10C7A00000185B412018A2F5001747EB030140EA8F
:10C7B000D570B6196D4111E06D084FEA360645EAAD
:10C7C000C0754FEA0752001B61EB0201001C41F5E6
:10C7D000801149084FEA30000019514132462B467A
:10C7E00003B0BDE8F04F00F06CB9009801224000A2
:10C7F0000023D0EB020263EBE073009821464FEA7E
:10C80000E074B8EB000061EB0401E9E783F000435A
:10C810005BE781F0004158E72DE9FE4F81EA030410
:10C8200004F0004421F0004100944FF0000B23F08D
:10C83000004350EA01045ED052EA03045BD0C3F324
:10C840000A54C1F30A552C44A4F2F3340194A0FB1A
:10C850000254C1F3130141F48011C3F3130343F4F1
:10C86000801301FB024400FB034E840A970A44EA4A
:10C87000815447EA8357A4FB076802958D0A05FB9C
:10C8800007854FEA932C04FB0C542705029D4FEAC1
:10C89000065847EA1637B5EB08056EEB070C870E0E
:10C8A000920E47EA811742EA8312A7FB0201B6EB18
:10C8B0000B0164EB00042B0D43EA0C335E1844EBD0
:10C8C0001C50DA465146E7FB0201C5F313044FEA58
:10C8D0000B3343EA14534FEA0432019C43EA060344
:10C8E000A4F10C040294009CCDE900B400F0F8F827
:10C8F00003B0BDE8F08F00200146F9E72DE9F04DC7
:10C9000081EA030404F0004B21F0004514464FF087
:10C91000000A23F0004150EA050220D054EA010247
:10C920001DD0C5F30A570246C5F31303C1F3130024
:10C93000C1F30A5640F4801543F48013A7EB0608B0
:10C94000101BD64608F2FD3873EB050002D308F140
:10C95000010801E092185B41B8F1000F03DA0020F2
:10C960000146BDE8F08D00204FF480110646844654
:10C970000EE0171B73EB050705D3121B63EB0503D2
:10C9800006434CEA010C49084FEA300092185B411B
:10C9900050EA0107EDD152EA030012D082EA040006
:10C9A00083EA0501084305D0101BAB4106D20122E2
:10C9B000002306E000224FF0004302E06FF0010286
:10C9C00053101AEB06004CEB085110EB0A0041EB38
:10C9D0000B01BDE8F04D00F074B8C1F30A52C1F389
:10C9E000130140F2FF3341F480119A4202DA002031
:10C9F0000146704740F233439A42A2F2334202DCCE
:10CA0000524200F03CB800F02BB8000030B5041ED4
:10CA100071F1000404DB4FF00044404264EB01017B
:10CA2000141E73F1000405DB1C464FF00043524214
:10CA300063EB0403994208BF904230BD064C074D9A
:10CA400006E0E06840F0010394E8070098471034DE
:10CA5000AC42F6D3FFF7D8FC283502004835020077
:10CA6000202A04DB203A00FA02F1002070479140AE
:10CA7000C2F1200320FA03F3194390407047202AA3
:10CA800004DB203A21FA02F00021704721FA02F378
:10CA9000D040C2F120029140084319467047202A35
:10CAA00006DBCB17203A41FA02F043EAE07306E0D6
:10CAB00041FA02F3D040C2F12002914008431946E6
:10CAC000704710B5141E73F1000408DA401C41F1E0
:10CAD000000192185B411A4301D120F0010010BD02
:10CAE0002DE9F04D92469B4611B1B1FA81F202E078
:10CAF000B0FA80F220329046FFF7B2FF04460F46AC
:10CB000040EA0A0041EA0B0153465A46084313D053
:10CB1000114653EA010019D0C8F140025046FFF710
:10CB2000AEFF05460E46504659464246FFF798FF6F
:10CB3000084305D0012004E020463946BDE8F08DC9
:10CB40000020054346EAE0762C4337430A98630504
:10CB5000E40AA0EB08000022FD0A44EA47540A3028
:10CB600002D500200146E9E7010510196941DDE918
:10CB7000084500196941BDE8F04DA2E770B58C1871
:10CB800010F8015B15F0070301D110F8013B2A11E1
:10CB900006D110F8012B03E010F8016B01F8016BCE
:10CBA0005B1EF9D12B0705D40023521E0DD401F8CA
:10CBB000013BFAE710F8013BCB1A921C03E013F893
:10CBC000015B01F8015B521EF9D5A142D8D30020C8
:10CBD00070BD00002DE9F04F87B00027BA464FF432
:10CBE000807006900125002412E0069804F03AFBBC
:10CBF00040B100BF60480068284018B1069804F0B2
:10CC000023FB2F436D000698001D80B20690641C24
:10CC1000082CEAD34FF4BE7004F024FB48B14FF463
:10CC2000BE7004F011FB47F0004700BF5348006896
:10CC30008246F8B2F8B1012500241AE005EA07009F
:10CC4000A8B100BF4E4850F82400C0F304200646A7
:10CC500000BF4B4850F82400C0F3014080462046F6
:10CC600002F05AFD814641463046C84700BF6D007C
:10CC7000641C082CE2D307F00040002879D04FF064
:10CC8000000B00200590401E049000BF4FF0000BE9
:10CC9000002457E03B48005D0390039820F0C00655
:10CCA00038480057401C00284BD00120B040049960
:10CCB0000840002845D003984FEA9019304602F00A
:10CCC00073FD804602F028FD0290029810B9B9F178
:10CCD000030F35D1012000FA06F5B9F1030F02D197
:10CCE00005982843059000BF274850F82600C0F358
:10CCF000014800BF05EA0A0010B1B8F1020F05D0E3
:10CD000005EA0A00D8B9B8F1030F18D1B9F1030F39
:10CD10000FD1B8F1020F01D1032000E002200190F1
:10CD20003046019904F070FA0BF1010000F0FF0B9E
:10CD300000BF029818B149463046029A904700BF9A
:10CD400000BF641C042CA5D3BBF1000F0DD000BFA5
:10CD50000A4909680846504503D14FF0000B03E02B
:10CD600007E082460599049100BFBBF1000F8DD109
:10CD700000BF07B0BDE8F08F04630040100500500D
:10CD800010650040A45A00200007005000F01F0268
:10CD900001219140024A430942F8231070470000E4
:10CDA00080E200E000F01F02012191404209920060
:10CDB00002F1E022C2F800117047000000F01F02EB
:10CDC00001219140024A430942F8231070470000B4
:10CDD00000E200E010B5002807DA4A07140E054A01
:10CDE00000F00F031B1FD45403E04A07130E024A3E
:10CDF000135410BD18ED00E000E400E010B503226C
:10CE00000021024803F03EFD10BD000000B00040CC
:10CE100010B500200949086000210948C0F84411F4
:10CE2000C0F84811C0F84C1100200549C1F80001B4
:10CE300002493C39086005F089FE10BD40110140EF
:10CE400000100140FEB54FF4827004F07BFA38B355
:10CE50004FF4827004F080FA00208DF800002D4815
:10CE60004068019000BF2C48006880B2ADF808000F
:10CE70002848C06820B90020264981F827000AE028
:10CE80002448C068234948600846808A08810020F9
:10CE9000C86004F07DFA1F4801686846884700BFF3
:10CEA0004FF48A7004F04EFA40B14FF48A7004F0E7
:10CEB00053FA0020174981F827002AE01548056930
:10CEC00024E0B5FA85F64FF00040F0408543B0000D
:10CED00000F58C74204604F035FAB8B1204604F011
:10CEE0003BFA01208DF80000A4F58C70C0F3C70058
:10CEF0008DF80400A4F58C70012121EA90018DF8D1
:10CF00000510044801686846884700BF002DD8D145
:10CF100000BFFEBDA45B00203476004010B505F0D4
:10CF20002DFD10BD70B50A48006868B1084800685A
:10CF30008047044600BF254625B100BF284600F0C3
:10CF4000EDFF00BF00BF01E003F00CF870BD000072
:10CF50000C54002001480249086070470090D0033B
:10CF60002454002010B502F013FE10B1824883490A
:10CF7000486702F025FE28B181480068C0F34230BE
:10CF80008049086002F046FE28B17F48006820F022
:10CF900080707D49086002F055FE48B100207B4951
:10CFA00008604FF08041C1F810017649091F086000
:10CFB00002F072FE18B1032072496431086002F079
:10CFC00083FE68B1052072490860012070497831FC
:10CFD000086000206E49083108603F20091F086082
:10CFE00002F08AFE002855D06A4800686A49086045
:10CFF0006848001D0068091D086066480830006820
:10D00000091D086063480C300068091D086061480C
:10D0100010300068091D08605E4814300068091D62
:10D0200008605C48183000685B4920310860594846
:10D030001C300068091D0860564820300068091D32
:10D040000860544824300068091D086051482830A1
:10D050000068091D08604F482C300068091D0860F1
:10D060004C48303000684C49403108604948343001
:10D070000068091D0860474838300068091D0860CD
:10D0800044483C300068091D086042484030006850
:10D09000091D086002F052FD30B1394814300068B3
:10D0A00000F04F003D49086037487438006840F48C
:10D0B000700035497439086000BF00BF00BFBFF37E
:10D0C0004F8F00BF00BF00BF00BF00BF00BFBFF356
:10D0D0006F8F00BF00BF00BF3148006800F0004004
:10D0E00030B92F48001D006800F00040002840D0F3
:10D0F00001202C49086000BF2B4800680028FBD0A5
:10D1000015202749086000BF274800680028FBD089
:10D1100015212348001D016000BF23480068002836
:10D12000FBD000201F49086000BF1F48006800288E
:10D13000FBD000BF00BF00BF00BF00BFBFF34F8FD9
:10D1400000BF00BF00BF1048F038006800F4E06086
:10D1500016490843001D0C49F039086000BF00BFA4
:10D1600000BFBFF34F8F00BF00BF00BF00BF00BFB5
:10D17000FDE7FFF7EFFE10BD0DF0ADBA00C00740B0
:10D18000440200103C050040FCED00E00C010040B2
:10D19000105600400404001020C50040E40E00407A
:10D1A0000012001004E5014000E401400000FA050F
:10D1B00010B506220249034802F026FF10BD000008
:10D1C000D05B002000A0014010B5062202490348B0
:10D1D00002F01AFF10BD0000DC5B002000B001402F
:10D1E00010B50448007F10B105F06EFF01E005F0B6
:10D1F000BBFE10BDAC5A00200FB4054B10B503A9FF
:10D20000044A029800F0FEF810BC5DF814FB000020
:10D210003DFE0100045400200FB4084B10B504A9D2
:10D2200002AA039800F0EEF8044602A9002000F0DC
:10D2300080FC204610BC5DF814FB000033DB0100CD
:10D240002DED020B019820F0004001909DED000BA8
:10D2500002B0704702E008C8121F08C1002AFAD1C4
:10D2600070477047002001E001C1121F002AFBD166
:10D27000704700BFEFF31081084672B67047000098
:10D280002DE9FF5F82B00021DDE90430020DDDF8F9
:10D2900040B0034318D044F61050A2F2FF3242438C
:10D2A0001514119801281FD0A5EB0B00401C5FEA54
:10D2B000000A4FF000064E4FDFF83891B046504656
:10D2C00015D5CAF1000413E0119801244AA30128DE
:10D2D00001D16FEA0B010298119AC0E90031C0E94F
:10D2E000024206B0BDE8F09FCBF10000DFE7044644
:10D2F0000021404A491842EB0450CDE9001012E0E9
:10D30000E00707D032463B4640464946FFF784FADD
:10D310008046894632463B4610461946FFF77CFA5E
:10D3200006460F466410002CEAD1DDE90401DDE970
:10D330000023BAF1000F06DAFFF76EFA42464B46B9
:10D34000FFF76AFA05E0FFF7D9FA42464B46FFF7C6
:10D35000D5FA04460E460022284BFFF757FB03D8A8
:10D360004FF0FF30014607E00022254B20463146B2
:10D37000FFF7ABF9FFF731FB102409E0002C0ADBC3
:10D380000A220023FFF739F9039B30321A55641E35
:10D3900050EA0102F2D1641C039AC4F1110314444F
:10D3A000119A012A03D0012208430DD10AE0084353
:10D3B00004D000204FF0110B119072E7A3EB0B0586
:10D3C0006D1E0DE05B4504DD4FF0000205F1010527
:10D3D00004E003DA4FF00002A5F10105002AECD0C9
:10D3E00002981199C0E90231C0E9004579E70000CF
:10D3F000000014400000F03F300000000000F04347
:10D400000000E03F2DE9FF4F95B09B468946064658
:10D4100000250FE2252877D100242746F84A01216C
:10D42000059400E0044316F8013F203B01FA03F0A5
:10D430001042F7D130782A2811D06FF02F033078BE
:10D44000A0F13002092A16D8059A44F0020402EB32
:10D45000820203EB42021044761C0590EFE759F874
:10D46000042B0592002A03DA504244F4005405903C
:10D4700044F00204761C30782E2816D116F8010FDD
:10D4800044F004042A280DD06FF02F023078A0F168
:10D490003003092B09D807EB870302EB4303C718B6
:10D4A000761CF3E759F8047B761C30786C280FD093
:10D4B00006DC4C2817D068280DD06A2814D104E067
:10D4C000742810D07A280FD10DE044F400140AE03B
:10D4D00044F4801401E044F440147278824202D192
:10D4E00004F58014761C761C307866280BD013DC8B
:10D4F000582877D009DC002875D04528F6D0462872
:10D50000F4D047281AD19DE118E0632835D064286B
:10D5100079D0652812D195E1702873D008DC67288E
:10D52000F1D069286FD06E280DD06F2806D1B5E0F4
:10D5300073282CD0752875D0782874D05A4617993E
:10D5400090476D1C75E1C4F30250022809D00328EE
:10D550000DD0D9F8001004280DD00D6009F1040990
:10D5600067E1D9F80010EA17C1E90052F6E7D9F8E7
:10D5700000100D80F2E70D70F0E719F8041B8DF82C
:10D58000001000208DF80100EA46012003E059F860
:10D5900004AB4FF0FF3061074FF0000102D40DE003
:10D5A00008F101018846B9420FDA8045F8DB1AF824
:10D5B00008100029F4D108E008F1010188468142F1
:10D5C000FADB1AF808100029F6D105985B46A0EBA3
:10D5D000080721463846179A00F094FA284400EBD1
:10D5E000080507E04DE029E10DE01AF8010B5A4665
:10D5F00017999047B8F10108F7D25B4621463846A3
:10D60000179A13E142E00A220092C4F302524FF04B
:10D61000000A022A08D059F804CB032A4FEAEC7119
:10D620000AD00DE029E02AE009F1070121F0070204
:10D63000F2E802C1914609E00FFA8CFC4FEAEC7166
:10D64000042A03D14FFA8CFC4FEAEC71002907DA67
:10D650000A460021DCF1000C61EB02012D2202E000
:10D66000220504D52B228DF80420012203E0E207D5
:10D6700001D02022F7E7904659E00A2102E010226B
:10D680000DE010214FF0000A00910BE010224FF046
:10D69000000A44F004040827009203E008224FF037
:10D6A000000A0092C4F30252022A05D059F804CBB2
:10D6B0000021032A08D009E009F1070121F007023F
:10D6C000F2E802C1914605E01FFA8CFC042A01D160
:10D6D0000CF0FF0C4FF00008220728D5702806D068
:10D6E000009B83F0100353EA0A0305D00EE04022AA
:10D6F0008DF80420012208E05CEA010206D0302205
:10D700008DF804208DF8050002229046009B83F0DE
:10D71000080353EA0A030AD15CEA010201D1620755
:10D7200005D530228DF804204FF001087F1E5828BF
:10D7300004D034A003900EA802900DE036A0F9E7C3
:10D7400053466046009AFEF758FF84460398825C71
:10D750000298401E029002705CEA0100F0D102982B
:10D7600006A9081A00F1200A600702D524F48034C3
:10D7700000E00127574502DDA7EB0A0000E000208A
:10D7800000EB0A01009005984144401A0590E0031F
:10D7900006D45B462146179A059800F0B3F9054474
:10D7A000002706E001A85A46C05D179990476D1CF6
:10D7B0007F1C4745F6DBE0030CD55B462146179AF4
:10D7C000059800F09FF9054404E030205A46179967
:10D7D00090476D1C0099481E00900029F5DC08E078
:10D7E000029802995A460078491C0291179990476D
:10D7F0006D1CBAF10001AAF1010AF1DC65E100003B
:10D800000928010030313233343536373839616216
:10D8100063646566000000003031323334353637DA
:10D8200038394142434445460000000000F058F9B1
:10D830000544761C307800287FF4ECAD19B02846FA
:10D84000BDE8F08F620700D4062709F1070222F035
:10D85000070CFCE80223E14603F000485FEA080CED
:10D8600002D00FF2702C0DE05FEA045C02D50FF2DB
:10D87000682C07E05FEAC47C02D00FF2602C01E064
:10D88000AFF2700C4FF0FF3823F00043CDF850C0DA
:10D8900065280CD006DC452809D046281DD047282D
:10D8A0003DD13DE0662818D067287ED138E00021C0
:10D8B000112F01DB112000E0781CCDE9000106A941
:10D8C0000EA8FFF7DDFCDDE90F010E9A03910021A0
:10D8D000009207F1010A04914DE04FF000400097DB
:10D8E000CDE9011006A90EA8FFF7CAFCDDE90F0279
:10D8F00003920E9B11990022DDF80CA00093049274
:10D9000011B9791C00EB010AB7EB0A0004D4C0F18D
:10D91000FF3007F1010A0490AAEB0700019044E0F0
:10D92000012F00DA01270021112F01DD112000E075
:10D930003846CDE9000106A90EA8FFF7A1FCDDE9F4
:10D940000F010E9A0391002104910092BA4621071B
:10D950000CD40399514500DA8A46BAF1010F05DD6E
:10D96000009AAAF10101515C302908D0B84202DACC
:10D9700010F1040F06DA0121CDE9011015E0AAF13A
:10D980000101E9E7002805DC049901440491AAEBB0
:10D99000000102E0411C514500DD8A460499401A0D
:10D9A000401C01904FF000400290200704D40198E1
:10D9B000504501DBCDF8048000208DF84F0002981F
:10D9C0000DF14F07B0F1004F25D02B200E9002989B
:10D9D0004FF0020800280CDA404202902D200E90F1
:10D9E00007E00A210298FEF7F2FD3031029007F8B5
:10D9F000011DB8F10001A8F10108F2DC029800282D
:10DA0000EFD1791E0E980870307800F0200040F0B9
:10DA1000450007F8020D12A8C01B00F10708149872
:10DA2000007800B1012000EB0A01019801EBE071E0
:10DA300005984144401A401E0590E00306D45B4619
:10DA40002146179A059800F05DF80544149800786F
:10DA500018B15A46179990476D1CE00324D55B46D0
:10DA60002146179A059800F04DF805441CE00498EB
:10DA7000002807DBDDE90301884203DD0098405CF4
:10DA8000179901E0179930205A469047049805F1FC
:10DA90000105401C04900198401E019004D12E20E5
:10DAA0005A46179990476D1CBAF10001AAF1010A74
:10DAB000DDDC05E017F8010B5A46179990476D1CFD
:10DAC000B8F10001A8F10108F4DC5B462146179A81
:10DAD0000598ABE62D0000002B00000020000000A0
:10DAE0002DE9F041044600251E461746880404D45B
:10DAF00005E039462020B0476D1C641EF9D5284644
:10DB0000BDE8F0812DE9F041044600251E4690460F
:10DB1000C80301D5302700E02027880404D505E09C
:10DB200041463846B0476D1C641EF9D52846BDE80D
:10DB3000F0810A68531C0B60107070472DE9FC419E
:10DB40000446884616460025378800203080606BE2
:10DB500068B1616B08783B463246414604F08EFD61
:10DB6000054600BF15B12846BDE8FC8100BF206B0B
:10DB700058B13B4632464146206B05F038F8054621
:10DB800000BF0DB12846EFE700BF94F82E0060B14A
:10DB900094F82E003B463246414602F09DFA054677
:10DBA00000BF0DB12846DFE700BF94F82D0050B14B
:10DBB0003A463146404600F06EFF054600BF0DB1C3
:10DBC0002846D1E700BFA07850B13A4631464046DA
:10DBD00000F06CFB054600BF0DB12846C4E700BF4E
:10DBE000E07860B1E17848B23B463246414602F007
:10DBF000EFF8054600BF0DB12846B5E700BF6068E5
:10DC000068B1616891F900003B463246414605F033
:10DC1000B9F8054600BF0DB12846A5E700BF208929
:10DC200000280EDD43460622022104F10800CDE95A
:10DC3000006705F073FB054600BF0DB1284693E76A
:10DC400000BF208A00280EDD43460722032104F18D
:10DC50001000CDE9006705F061FB054600BF0DB17E
:10DC6000284681E700BF208B00280EDD43461522A1
:10DC7000142104F11800CDE9006705F04FFB0546BB
:10DC800000BF0DB128466FE700BF206A58B13B4680
:10DC900032464146206A01F002FE054600BF0DB142
:10DCA000284661E700BF606A58B13B4632464146AC
:10DCB000606A02F075FB054600BF0DB1284653E7C8
:10DCC00000BF94F82C0000280BDD3B46324641464D
:10DCD000204604F0EEFC054600BF0DB1284643E7A0
:10DCE00000BF207858B13B4632464146204602F0FC
:10DCF00092FB054600BF0DB1284635E700BF284618
:10DD000032E70146C87800F0040008B907207047E0
:10DD10000020FCE710B501220221002001F01CF9CF
:10DD2000044600BF1CB1072C01D0204610BD00BF27
:10DD300007220221012001F00FF9044600BF1CB1A7
:10DD4000072C01D02046F1E700BF0A220021084637
:10DD500001F002F9044600BF1CB1072C01D0204697
:10DD6000E4E700BF0020E1E730B5A7B0382119A8EB
:10DD7000FEF7F3FB02208DF8640000208DF86600AA
:10DD800005208DF8670038210BA8FEF7E6FB01207F
:10DD9000ADF83C0010491091242102A8FEF7DDFBEC
:10DDA00001208DF8140040200690B4200790002038
:10DDB0000A4B02AA0BA9009019A800F053FB0446D5
:10DDC00000BF254625B100BF284600F0A7F800BFD8
:10DDD00000BF27B030BD000084200020B71402002F
:10DDE000014600BF064A10684FF400228243044BEC
:10DDF0001B1D1A6000F400221B1D1A6000BF704733
:10DE00000405005010B5002407E00749096811F81F
:10DE10003400012102F0A4FB641C04480078844211
:10DE2000F3D3002010BD0000CC530020D0530020BD
:10DE30002DE9F84306460C461746052F02D2072067
:10DE4000BDE8F88302F08CFC38B902F05FFC0546AF
:10DE500000BF0DB12846F3E700BF1648066016481C
:10DE600004701648076000201549086015490860CD
:10DE700015E006EBC40814480068009098F802000A
:10DE80008DF8010098F80000104A694602F0C4FBC2
:10DE9000054600BF0DB12846D2E700BF00BF201ED7
:10DEA000A4F10101CCB2E4D1094A0021094800F0F3
:10DEB00075F8C5E7CC530020D0530020D453002080
:10DEC000D8530020DC53002024350200E5FE010079
:10DED0004DFA01002035020000BF00BF00BF00BFA7
:10DEE00000BFBFF34F8F00BF00BF00BF09480068ED
:10DEF00000F4E06008490843001D0649086000BFBF
:10DF000000BF00BFBFF34F8F00BF00BF00BF00BF07
:10DF100000BFFDE70CED00E00000FA053EB5044649
:10DF2000002000900190029002946A46002144F281
:10DF30000100FFF7D1FF3EBD70B504460D462046F7
:10DF400001F02FFF28B12946204601F019FF0020DB
:10DF500070BD0520FCE7034609B90E20704712B1D9
:10DF6000501E104008B10920F8E71960501E988033
:10DF700000209860D86000BFF0E770B504460D46F9
:10DF8000204601F00EFFA188884205D82946204688
:10DF900001F015FF002070BD0420FCE710B503461A
:10DFA0000C4600BF0B48006808B9082010BD00BF30
:10DFB0000AB90720FAE70BB90720F7E71868007CD1
:10DFC00008B10820F2E71968002008744C744A610F
:10DFD00000BFEBE7E45300202DE9F04180460E46F8
:10DFE00014461F46204600F0030109B9012100E054
:10DFF000002111B90720BDE8F08124B900201D4996
:10E0000008600720F7E703F015FC1B4807600320B2
:10E010001A49087017480460183400250DE01549A6
:10E02000096801EBC50000210170417086704460F1
:10E0300006EB460104EBC1046D1C032DEFDB002051
:10E040000F4908600F4908700F4908701420FEF747
:10E050009DFE06211420FEF7BDFE1420FEF7A2FE51
:10E06000404603F0BDFB03F0B5FB08490860002003
:10E07000C1E70000E4530020FC530020E0530020DF
:10E08000E8530020F8530020F9530020EC530020FF
:10E090002DE9F84304460D461746264600BF1148B1
:10E0A000006810B90820BDE8F88300BF0CB908204B
:10E0B000F9E7052D01D20720F5E7706908B90820B6
:10E0C000F1E7707C012801D1284600E0002080465D
:10E0D00005F0DEF8814643462A463146009704F0B3
:10E0E000E7FCE0E7E453002070B50446254600BF96
:10E0F0000948006808B9082070BD00BF0CB1686904
:10E1000008B90820F8E70020287405F0C1F8064691
:10E11000294604F0FBFCEFE7E453002070B5044609
:10E120000A4801F039FE09498988884208D101214D
:10E13000074802F063FE05460DB1052070BD00BF23
:10E1400021460248FFF7F8FEF8E70000345A0020A5
:10E150008D5300202DE9F04188B004460D46174646
:10E160009846294807601DB9072008B0BDE8F0812E
:10E17000A88882B225482968FFF7EDFE064600BF51
:10E180000EB13046F1E700BFA88982B22048A968E5
:10E19000FFF7E1FE064600BF0EB13046E5E700BFDF
:10E1A00020221C496846FEF7BFF9A0680690207936
:10E1B00008B1012000E000208DF814008DF81C80CB
:10E1C000607908B10E2000E000208DF81500E0789D
:10E1D0000290A078039020780190607800900E491A
:10E1E000684602F099FD064600BF0EB13046BCE716
:10E1F00000BF9DF81D0008B902F058FE0121074834
:10E2000002F0FCFDB1E7000088530020345A0020E2
:10E21000445A0020CC340200512E02008D530020BD
:10E2200070B5044621460A48FFF7A7FE054665B9C2
:10E2300002F0A2FF48B907490548FFF77DFE20B963
:10E240000121044802F0F6FE0546284670BD000094
:10E25000445A00208C53002010B50446204604F098
:10E26000D9F910BD70B5044625460E488068B0B196
:10E27000ADB9FEF7FEFF06460A4800680A49086085
:10E28000084840684FF0E021C1F80401002005492A
:10E2900088601EB900BF62B600BF00BF00BF00BFEC
:10E2A00070BD0000605C002000E100E0F8B50546AC
:10E2B0000C4617462088001DB84201D90C20F8BD35
:10E2C000684679DF064600BF0EB13046F7E700BF6B
:10E2D0000320218868542088401C20801920218830
:10E2E00068542088401C208020884119BDF8000017
:10E2F00004F080FF2188084420800020DFE7000030
:10E3000010B50446206802F091FF206802F06FFF0C
:10E310000021606802F05EFF2548007F18B3A06905
:10E320002449086000BF607D217D40EA0102224B44
:10E33000C3F86C2500BF1846D4E9001203F09CF81E
:10E34000207D012832D10021A06802F043FFE0685F
:10E3500002F06CFFE06802F04AFF1748D4E902219E
:10E3600003F076F822E0A0691249086000BF607DE2
:10E37000217D40EA0102104BC3F86C2500BF18460E
:10E38000D4E9001203F04FF8207D01280ED10021BE
:10E39000A06802F01FFFE06802F048FFE06802F0AA
:10E3A00026FF0548D4E9022103F026F810BD00003D
:10E3B000AC5A0020242500400020004001460348BC
:10E3C000084008B9012070470020FCE700C0F0FFBA
:10E3D0002DE9F04192B080460D461F20119010901B
:10E3E000B8F1000F17D04046FFF78BFC044600BF82
:10E3F0001CB1204612B0BDE8F08100BF11AA08A9E7
:10E400004046FFF79BFB044600BF0CB12046F1E7F6
:10E4100000BF08AE02E0002600201190ADB12846F2
:10E4200004F03CFA044600BF0CB12046E2E700BF0E
:10E4300010AA69462846FFF781FB044600BF0CB1CD
:10E440002046D7E700BF6F4602E00027002010906B
:10E45000BDF84000C3B2BDF84400C1B23A463046F0
:10E4600072DFC7E72DE9F04704460F4615461E4602
:10E47000DDF8208000BF14B90E20BDE8F08700BF92
:10E4800000BF0DB90E20F8E700BF00204649087014
:10E49000464806604648C0F8008024222946454880
:10E4A000FEF742F800F018F9434844490860444830
:10E4B000886038214348FEF750F8207841490870B9
:10E4C000A0788870E078C870607848700846D4E911
:10E4D0000412C0E90412D4E90212C0E90212D4E91C
:10E4E0000612C0E90612606AD8B137483549486259
:10E4F00036498160606A00883249496A0880606AEA
:10E5000080883049496A8880002005E0616A89680E
:10E51000095C2E4A1154401C2A49496A8988814263
:10E52000F4D8A06A20B32A492A4881602549886224
:10E5300027492448806A8160A06A80882149896AC5
:10E540008880A06A00881F49896A0880002005E049
:10E55000A16A8968095C1E4A1154401C1949896ADC
:10E5600089888142F4D894F82C00164981F82C004F
:10E57000206A58B1184813490862206A4088096A1D
:10E580004880206A00880F49096A0880606820B1C5
:10E5900012480C4948606068486039460948FFF7EE
:10E5A00017FF8146484668E7645300205C5300200B
:10E5B000605300202C590020605900205059002041
:10E5C00080590020F4580020A0590020AC590020A8
:10E5D000D8590020CC590020685300206C530020EB
:10E5E00070B504462088102804D0112809D01B28B3
:10E5F00063D11BE0A07D012802D1A08830490880AA
:10E600005CE000202F490870A0882D4909888842C5
:10E610000BD1012000F0A4F8054635B12A48006866
:10E6200018B1284628490968884747E0207A002819
:10E6300042D126480078012806D0022811D00328AC
:10E640001CD0042836D129E0022000F089F80546C4
:10E6500035B11D48006818B128461B49096888472C
:10E6600029E0032000F07CF8054635B11648006823
:10E6700018B128461449096888471CE0032014494A
:10E680000870042000F06CF8054635B10E480068AB
:10E6900018B128460C49096888470CE000200C494D
:10E6A00008700C48006820B10846007809490968DC
:10E6B000884700E000BF00BF00E000BF00BF70BDA2
:10E6C0006E530020655300206053002064530020E7
:10E6D000585300205C5300200248002101608180D3
:10E6E000817170475153002010B5184800780128F7
:10E6F00029D11748007830BB1648007830B174DF54
:10E70000044600BF0CB1204610BD00BF01201049D7
:10E71000087006201049C87000210F48FFF758FE06
:10E72000044600BF0CB12046EEE700BF0948007860
:10E7300000F016F8044634B10848006818B12046C5
:10E740000649096888470020DEE700002C590020B0
:10E750006553002064530020F458002060530020CB
:10E7600030B587B005469548057001F04CFB28B1DF
:10E77000012093490870002007B030BDFFF7ACFFBF
:10E780009048407818B18D48007801280DD08D4808
:10E79000807818B189480078012806D089488078A7
:10E7A00088B18648007802280DD18748006838B1C2
:10E7B000012086490870082083490968884702E0DB
:10E7C0000020824908707D480078012809D17D48E1
:10E7D000407818B17E4802F097FF10B902207749BF
:10E7E000087076480078022809D17648807818B1F8
:10E7F000774802F089FF10B903207049087071480A
:10E80000007B30B96D480078032802D104206B49A1
:10E8100008706C48007E40B968480078042804D12C
:10E820000020664908706B49087067480068A8B105
:10E8300062480078032803D06048007804280DD18E
:10E840006048007850B16448007838B901206349C5
:10E85000087007205C490968884702E000205F498A
:10E860000870182101A8FDF778FE00208DF804003B
:10E8700002908DF80C00049050480078012806D0D2
:10E88000022813D0032825D0042876D150E0504820
:10E89000401E029001208DF804000020ADF8160003
:10E8A000ADF8140001204B49087071E04848401E43
:10E8B000029001208DF804004248008980B2ADF832
:10E8C00016004048808880B2ADF81400022041490B
:10E8D00008705DE03B48808A80B2ADF81600394888
:10E8E000008A80B2ADF814003D4804F0ACFDD8B108
:10E8F00034480078C0B138480078A8B902208DF8B3
:10E900000C003748049004203649C870002135486F
:10E91000FFF75EFD044600BF0CB120462CE700BFA8
:10E9200005202C49087002E003202A4908702FE0D6
:10E930002448808B80B2ADF814002248008C80B24D
:10E94000ADF81600264804F07EFDE0B11D480078C1
:10E95000C8B121480078B0B902208DF80C002048D9
:10E96000049004201F49C87000211E48FFF730FDA5
:10E97000044600BF14B12046FEE608E000BF0620B2
:10E980001449087002E004201249087000E000BF3A
:10E9900000BF0A48007838B101A873DF044600BF01
:10E9A0000CB12046E8E600BF0748006820B10948DE
:10E9B00000780549096888470020DDE66453002097
:10E9C000505300202C5900205C5300206753002036
:10E9D00052530020585300206553002066530020F6
:10E9E00050590020F458002070B505461C222946D5
:10E9F0001248FDF799FD002011490870286850B1B0
:10EA0000104829680A680260496841607ADF044654
:10EA10003CB1204670BD0B487BDF04460CB120465C
:10EA2000F8E74FF6FF700849088000200749087092
:10EA3000074A00210748FFF7B1FAEBE7F859002031
:10EA400084530020705300207A5300207853002014
:10EA500001320200B834020010B5044620881028A4
:10EA600006D0112808D012280ED0502810D107E067
:10EA7000204602F0B1FD0CE0204602F0CDFD08E09A
:10EA8000204602F0EDFD04E0204602F099FD00E092
:10EA900000BF00BF10BD2DE9FC4105460C461746DE
:10EAA00020880930B84202D90C20BDE8FC816846B4
:10EAB00071DF064600BF0EB13046F6E700BF082002
:10EAC000218868542088401C20801B20218868549D
:10EAD0002088401C208020882844DDF80110016037
:10EAE000BDF8051081802088801D20809DF80000E1
:10EAF00018B900202188685402E001202188685458
:10EB00002088401C20800020CFE7000010B504467C
:10EB10002046FFF7A1FF2146064800F057F820469F
:10EB200002F0E2FC2046FFF75BFD204600F010F902
:10EB300010BD00002854002070B586B004460E4673
:10EB4000214B0FCB01AD0FC500BF14B90E2006B08D
:10EB500070BD00BF00BF0EB90E20F8E700BF4FF632
:10EB6000FF70A0823068A0610020A075214601A836
:10EB700063DF054600BF0DB12846E8E700BF2078F7
:10EB80008DF816000120ADF81400A21C05A9A0DF25
:10EB9000054600BF0DB12846D9E700BF31462046E3
:10EBA00002F09CFE054600BF0DB12846CFE700BF2E
:10EBB0003146204604F05AF8054600BF0DB12846FC
:10EBC000C5E700BF0020C2E7BC34020070B50546AF
:10EBD0000C4605B104B970BD2088102804D0112856
:10EBE00007D050280FD109E02146284602F010FD39
:10EBF0000AE02146284602F02FFD05E0214628467E
:10EC000002F05AFD00E000BF00BF00BFE3E737B5E8
:10EC100084B004460D4600BF14B90E2007B030BDC5
:10EC200000BFA08A4FF6FF71884201D0A07D08B9CD
:10EC30000820F3E7BDF81800142801DD0720EDE7F0
:10EC400000200090019002900390A089ADF8000090
:10EC5000039506A8029001208DF80200A08A69465B
:10EC6000A6DFDBE770B586B027480068059000BFD7
:10EC700000234822254905A803F0DEFD054600BF14
:10EC80002E4626B100BF3046FFF748F900BF00BF4F
:10EC900000BF6A460121002003F0AEFD044600BF1C
:10ECA000254625B100BF2846FFF738F900BF00BF51
:10ECB00000BF174E304603F037FC044600BF254620
:10ECC00025B100BF2846FFF729F900BF00BF00BFEC
:10ECD000684603F083FD044600BF254625B100BF0A
:10ECE0002846FFF71BF900BF00BF0A4803F06AFD82
:10ECF000044600BF254625B100BF2846FFF70EF9A0
:10ED000000BF00BF06B070BD68340200645400202C
:10ED1000E81F00200DEB010070B505460C460026EB
:10ED20000948056044B1204603F0BFFD064600BF18
:10ED30000EB1304670BD00BF0448006810B9FEF740
:10ED4000E9FF06463046F5E7485300204C530020C3
:10ED500070B505462888102802D011282CD115E05E
:10ED60001748006860B900F047FE044600BF34B1A0
:10ED70001448006818B1204612490968884700BF46
:10ED80000F480068401C0E49086016E00C480068F7
:10ED9000401E0B4908600846006860B9FEF7BAFFDC
:10EDA000044600BF34B10748006818B12046054941
:10EDB0000968884700BF00E000BF00BF70BD0000C9
:10EDC0004C5300204853002010B5032000F038FCBD
:10EDD000044600BF1CB1062C01D0204610BD00BF68
:10EDE0000020FBE72DE9F04105460F464FF00008F3
:10EDF000002400E0641C042C04D22A4850F82400AB
:10EE0000A842F7D1042C41D227B3012F02D0022F00
:10EE10003BD133E004EB4400234911F8008004EBBC
:10EE200044000844407868B12048006800EB800046
:10EE300041001F4A1F480068FFF72AF906460EB92D
:10EE40001B48057004EB44001749084480781A49B0
:10EE500008551AE017480068FFF746F91648005DA4
:10EE600004EB4401104A11448978884205D104EB2F
:10EE700044001146084490F8028006E004EB440088
:10EE80000949084490F8018000BF00BFB8F1000FA5
:10EE900006D00A48006818B1404608490968884702
:10EEA000BDE8F08188340200C858002030530020AB
:10EEB0004053002084340200415300203C53002082
:10EEC00010B50246042A0ED2094B1B68D843094BE1
:10EED00013F822400123A34003400BB1012300E0BB
:10EEE00000230B7001E000200870002010BD00001E
:10EEF000100500508834020070B50546042D06D078
:10EF0000072D15D00A2D22D103F036FC20E0132165
:10EF10001048008876DF0446082C08D000BF26463B
:10EF200026B100BF3046FEF7F9FF00BF00BF0FE07B
:10EF3000FFF7DAFB0446082C08D000BF264626B1AE
:10EF400000BF3046FEF7EAFF00BF00BF00E000BF91
:10EF500000BF70BD8220002030B503460020042B86
:10EF600023D2012A07D1012903D103F10D04E4B210
:10EF700000E00024224679B1012902D0022911D1F2
:10EF800004E003EB43040A4D2A550DE003EB430470
:10EF9000074D2C44627007E003EB4304044D2C44FE
:10EFA000A27001E0072000BF00E0072030BD000094
:10EFB000C858002070B5044600250548007800F0C8
:10EFC000010018B1204600F06DF80546284670BDD6
:10EFD000345300202DE9F04105460E4690460024AA
:10EFE00025480660254805602548C0F8008005F0E2
:10EFF0000200F8B1002706E0012211463846FFF76B
:10F00000ABFF04467F1C042F01D2002CF4D02CB996
:10F01000720804211B48FEF70BFF044614B9FEF7E3
:10F02000F1FE04462CB9184A00211848FEF7B6FF35
:10F03000044600BF05F0010068B100BF4FF4F010B6
:10F04000134908600020091D086000BF4FF4F0104C
:10F050000F49103108602CB90E4A00210E48FEF706
:10F060009DFF04462CB90D4A01210D48FEF796FF7D
:10F0700004462046BDE8F081305300203453002080
:10F080003C5300209834020091F6010084340200C1
:10F0900008050050450102007C340200E1DD01005A
:10F0A000803402002DE9F041044600260025182C8A
:10F0B0007DD2DFE804F00C1D1E68B4EEEDECEBEA47
:10F0C000E9E8E7E6E5E4E3E2E1E0DFDEDDDC00BF1E
:10F0D000FD4801684FF4F010884300F4F010FB493C
:10F0E00008600020091D086000BFF948047098E21C
:10F0F00000BF00BFF44801684FF4E010884300F4FB
:10F10000F010F24908600020091D086000BFEF48B8
:10F11000001F006880F4F01000F4003088B100BFD8
:10F120004FF40030091F08600020091D086000BF6F
:10F13000022C02D14FF4E16001E04FF47A60054601
:10F1400010E000BF4FF40030E049091D08600020C6
:10F15000091F086000BF022C01D1C82001E04FF454
:10F16000C8700546DA4804706420B5FBF0F0D94950
:10F17000096800FB01F700223946D7480068FEF70E
:10F1800087FF06464DE200BFCF4801684FF4E0100C
:10F19000884300F4F010CD4908600020091D086084
:10F1A00000BFCA48001F006880F4F01000E037E29A
:10F1B00000F4003088B100BF4FF40030091F086030
:10F1C0000020091D086000BF032C02D14FF44870D5
:10F1D00001E04FF47A60054610E000BF4FF40030C4
:10F1E000BA49091D08600020091F086000BF032CF0
:10F1F00001D1C82001E04FF4C8700546B44804703E
:10F200006420B5FBF0F0B349096800FB01F7002268
:10F210003946B1480068FEF73BFF064601E200BFF1
:10F22000A94801684FF4E010884300F4F010A749A2
:10F2300008600020091D086000BFA448001F006886
:10F2400080F4F01000F4003020B300BF4FF4003021
:10F25000091F08600020091D086000BF042C02D1AE
:10F260004FF47A6001E04FF47A60054624E0CBE188
:10F27000C9E1B3E19DE187E179E13FE13DE13BE1B6
:10F2800039E137E12AE105E1EDE0D3E0BBE0A1E0BF
:10F290006CE022E000BF4FF400308C49091D08608B
:10F2A0000020091F086000BF042C02D14FF4C87071
:10F2B00001E04FF4C8700546854804706420B5FB32
:10F2C000F0F08449096800FB01F7002239468248C2
:10F2D0000068FEF7DDFE0646A3E100BF7A4801683C
:10F2E0004FF4E010884300F4F010784908600020E3
:10F2F000091D086000BF7548001F006880F4F01009
:10F3000000F4003080B100BF4FF40030091F0860E6
:10F310000020091D086000BF052C01D1C82001E0B4
:10F320004FF47A60054610E000BF4FF400306749A3
:10F33000091D08600020091F086000BF052C01D1CD
:10F34000C82001E04FF4C87005466148047064208D
:10F35000B5FBF0F05F49096800FB01F70022394670
:10F360005D480068FEF794FE06465AE100BF564825
:10F3700001684FF4E010884300F4F010534908602E
:10F380000020091D086000BF5048001F006880F47D
:10F39000F01000F4003040B100BF4FF40030091FFE
:10F3A00008600020091D086009E000BF4FF400302C
:10F3B0004649091D08600020091F086000BF444835
:10F3C000047044480022016843480068FEF760FE6C
:10F3D000064626E100BF3C4801684FF4E010884330
:10F3E00000F4F010394908600020091D086000BFD2
:10F3F00000BF4FF4003008600020091F086000BF04
:10F40000334804700DE100BF3049091F08684FF40C
:10F41000802181432D4A116000F48021121D11606A
:10F4200000BF2C48002201682B480068FEF730FE20
:10F430000646F6E000BF2549091F08684FF4802101
:10F440008143224A116000F48021121D116000BF27
:10F450002048006800EB800100221F480068FEF78A
:10F4600017FE0646DDE000BF1849091F08684FF483
:10F4700080218143154A116000F48021121D116022
:10F4800000BF14480022016813480068FEF700FE20
:10F490000646C6E000BF0D49091F08684FF48021E9
:10F4A00081430A4A116000F48021121D116000BFDF
:10F4B0000848006800EB8001002207480068FEF75A
:10F4C000E7FD0646ADE00000385300200805005077
:10F4D0002C530020305300207C34020000BF4FF436
:10F4E000F010524908600020091F086000BF504812
:10F4F000047096E000BF00BF00BF00BF4D48006829
:10F50000FEF7F2FD0646C4F111050DB306BB4FF43C
:10F51000002049490860012D0FD9C82068436421A3
:10F52000B0FBF1F04549096800FB01F700223946BC
:10F5300040480068FEF7ACFD064600BF3E48006844
:10F5400000F4F010394908600020091F08600DE040
:10F5500000BF3948006800F4F0103449091F086002
:10F560000020091D086000BF3349086059E000BF52
:10F570004FF4F0102D49091F08600020091D086094
:10F5800000BF2B4804704CE000BF4FF4E010274947
:10F59000091F08600020091D086000BF00BF4FF46C
:10F5A000003008600020091F086000BF2048047078
:10F5B00037E000BF4FF4D0101C49091F086000203D
:10F5C000091D086000BF00BF4FF4802008600020C4
:10F5D000091F086000BF1648047022E000BF4FF406
:10F5E000C0101249091F08600020091D086000BFF3
:10F5F00000BF4FF4C02008600020091F086000BF52
:10F600000B4804700DE000BF00BF4FF4F010074935
:10F6100008600020091F086000BF0548047000E072
:10F6200000BF00BF3046BDE8F08100000C0500506F
:10F630002C53002080340200385300203053002027
:10F6400030B5024600201AE00F4C54F82040A400C8
:10F6500004F1A044D4F800170124844014400CB1F4
:10F66000032400E00024234621F4403141EA034111
:10F67000064C054D55F8205044F82510401C042830
:10F68000E2D3002030BD00008834020000070050A3
:10F6900010B5044620780221FFF7A4FB10BD00003E
:10F6A000F8B50546134A40F6CD410320FFF792FC1A
:10F6B000044600BF264626B100BF3046FEF72EFCAA
:10F6C00000BF00BF69460020FFF726FB044600BFCD
:10F6D000264626B100BF3046FEF720FC00BF00BF23
:10F6E0009DF80000022801D1012000E000202870D0
:10F6F000F8BD0000F9EE01004FF0FF31054A42F875
:10F700002010082804DBFF23A0F1080150325354D5
:10F7100070470000545A00200146024850F821006A
:10F7200070470000545A00202DE9F04F03460C4664
:10F730004FF0FF390AB1002000E0082084460AB1EA
:10F74000082000E00C208046614624E0154850F86F
:10F750002100401CF0B91D460846274616464FFAC0
:10F7600080FBDFF840A00AF1300A0AF805B0DFF8A4
:10F7700034A04AF820704EB94FFA85FBA0F1080A70
:10F78000DFF820E00EF1500E0EF80AB000BF4FFA7D
:10F7900081F902E0491C4145D8D300BF4846BDE885
:10F7A000F08F0000545A002001460148405670472F
:10F7B000845A00202DE9F04782461F48006800283F
:10F7C00036D01D480068056802F004F807461B485B
:10F7D00004682146384603F08EF8C61C18480078A5
:10F7E00008B902F009F8AE4201D2284600E03046DE
:10F7F000044424F07F44204601F0E6FF01F0EAFFD4
:10F8000080463946404603F076F800F10309394650
:10F81000204603F070F8814509D901F0DBFF8146ED
:10F8200001F0D2FF2F20FCF731FE03F0DBF901E0FD
:10F8300002F000F8BDE8F087E8530020EC53002008
:10F840000054002001460888062808DB0888B0F527
:10F85000486F06DD08884FF6FF72904201D00720FE
:10F8600070474888062808DB4888B0F5486F06DDF1
:10F8700048884FF6FF72904201D00720F0E70888D1
:10F880004FF6FF72904208D04888904205D0088811
:10F890004A88904201DD0720E2E70020E0E72DE9F9
:10F8A000F04106460D46144698462088801D404586
:10F8B00002D90C20BDE8F0813046FFF7C3FF0746B0
:10F8C00000BF0FB13846F5E700BF05202188685416
:10F8D0002088401C20801220218868542088401CE9
:10F8E000208022885119308803F084FC2188084444
:10F8F000208022885119708803F07CFC21880844FC
:10F9000020800020D6E710B5044600BF2046FEF751
:10F9100005FB00BF10BD000030B587B01C21684654
:10F92000FCF71BFE002000904FF4203001904FF4B4
:10F930007020029003208DF80C000020ADF80E001E
:10F940008DF8100009480590094806906846FFF7B1
:10F950004BF8044600BF254625B100BF2846FEF7F8
:10F96000DDFA00BF00BF07B030BD000095150200F2
:10F9700007F9010038B51B4800F08EFB20BB1A4880
:10F98000007848B119484069E8B100200090174854
:10F9900041696846884716E01548007810B9134851
:10F9A000456801E011488568002229461148006831
:10F9B000FEF76EFB044634B10C48806918B10B4861
:10F9C00081692046884709E00848406930B1012034
:10F9D0000090064841696846884700BF00200249F8
:10F9E000087038BD7C53002084530020F859002053
:10F9F00078530020B834020010B5012200210846D7
:10FA0000FFF7AAFA044600BF1CB1072C01D020461C
:10FA100010BD00BF072202210120FFF79DFA044616
:10FA200000BF1CB1072C01D02046F1E700BF042223
:10FA300002210020FFF790FA044600BF1CB1072CFA
:10FA400001D02046E4E700BF0020E1E72DE9F047C0
:10FA50008146002532E01C48006800EBC50421788F
:10FA6000012000FA01F619480068304020B3174819
:10FA70000068B04315490860207800F039FE074659
:10FA8000217801208840124909680840217807FA46
:10FA900001F188420FD16078012800D100E00020F8
:10FAA000784080F00108606820B108F0FF012078FC
:10FAB0006268904700BF00BF681CC5B20548007867
:10FAC0008542C8DBBDE8F087CC530020DC53002022
:10FAD000D8530020D0530020014614480078144A1F
:10FAE000127890421DD011480078401C0F4A1070C7
:10FAF00010460078022801D1002010700D480B4AF2
:10FB0000127850F8220008600B4A08681268104406
:10FB1000094A10601046006820F07F401060012004
:10FB200070470020086000BFFAE70000F85300208B
:10FB3000F9530020F0530020EC53002013480078C4
:10FB4000062820D11148001D007800F00F00D0B920
:10FB50000E480830007800F0F000302801D1012074
:10FB600070470A480830007800F0F000402801D1C2
:10FB70000120F5E705480830007800F0F000502833
:10FB800001D10120ECE70020EAE70000E00F00F0DF
:10FB90000A48007806280ED10848001D007800F0B9
:10FBA0000F0040B905480830007800F0F000302818
:10FBB00001D1012070470020FCE70000E00F00F0B9
:10FBC00013480078062820D11148001D007800F065
:10FBD0000F00D0B90E480830007800F0F00030284F
:10FBE00001D1012070470A480830007800F0F00089
:10FBF000402801D10120F5E705480830007800F0E1
:10FC0000F000502801D10120ECE70020EAE70000D5
:10FC1000E00F00F00A48007806280ED10848001DC1
:10FC2000007800F00F0040B905480830007800F077
:10FC3000F000302801D1012070470020FCE70000CF
:10FC4000E00F00F013480078062820D11148001D6D
:10FC5000007800F00F00D0B90E480830007800F0AE
:10FC6000F000302801D1012070470A4808300078A0
:10FC700000F0F000402801D10120F5E705480830E8
:10FC8000007800F0F000502801D10120ECE70020BE
:10FC9000EAE70000E00F00F00A48007806280ED1DD
:10FCA0000848001D007800F00F0040B905480830F2
:10FCB000007800F0F000302801D1012070470020CA
:10FCC000FCE70000E00F00F00A48007806280ED19B
:10FCD0000848001D007800F00F0040B905480830C2
:10FCE000007800F0F000302801D10120704700209A
:10FCF000FCE70000E00F00F00A48007806280ED16B
:10FD00000848001D007800F00F0040B90548083091
:10FD1000007800F0F000502801D101207047002049
:10FD2000FCE70000E00F00F0F0B5034600241FE000
:10FD3000124E306806689E4203D90668F61A0660BD
:10FD40001AE006689B1B06683444002606600B4ECA
:10FD500035680A4FC6693E60C66846B10E1926F07E
:10FD60007F464660C66886601668C661156000BF3B
:10FD7000024800680028DBD100BFF0BDE853002036
:10FD800070B504460D462A460021204600F00EF8C4
:10FD9000A068401CA06070BD01468A68C868801ACF
:10FDA000704701468A68C868801A704710B5836832
:10FDB0000B44848823400468E35C137010BDC26860
:10FDC00083881A4003689954C268521CC260704705
:10FDD00030B504461088C01C984201D90C2030BDB3
:10FDE0000220158848551088401C10800120158875
:10FDF00048551088401C108015884C551088401CB0
:10FE000010800020EBE738B500200090684601F034
:10FE1000C5FC0446082C02D00CB1012038BD082CCA
:10FE200006D1684600F012F804460CB10020F5E750
:10FE3000009808B10120F1E70020EFE770B5044613
:10FE40000D46E0B2FEF7ECF9204670BD014609B957
:10FE5000032070470248406D08600020F9E7000069
:10FE6000085C00203EB500BF9DF8000020F00F00A8
:10FE7000401C00909DF8000020F0F0001030009031
:10FE800000BF0B2214A168467CDF044600BF254654
:10FE900025B100BF2846FEF741F800BF00BF002093
:10FEA000019002901020ADF804003C20ADF806004F
:10FEB0000020ADF808004FF4C870ADF80A0001A8A2
:10FEC0007ADF044600BF254625B100BF2846FEF76D
:10FED00025F800BF00BF3EBD4E6F726469635F5579
:10FEE000415254002DE9F04105460F46012000FA29
:10FEF00005F418480068FEF7F7F806460EB1BDE8AD
:10FF0000F081154800682040E0B9284600F0F0FB79
:10FF100028B11248006820431049086004E00F48E7
:10FF20000068A0430D4908600B48006820430A4957
:10FF3000086000220A48016806480068FEF7A8F831
:10FF4000064604E004480068A0430349086000BF77
:10FF5000D5E7000020350200DC530020D8530020F4
:10FF6000D4530020F8B52348007800B9F8BD2248E2
:10FF7000006808B9012000E0002005461F4800681D
:10FF800008B9012000E00020064600BF8DB9684690
:10FF900052DF0446052C01D1012509E024B100BF40
:10FFA0002046FDF7BBFF03E0134900980968884726
:10FFB00000BFBEB912480088009069461148006829
:10FFC00061DF0446052C01D101260AE024B100BFFF
:10FFD0002046FDF7A3FF04E00A48006807490968C6
:10FFE000884700BF0DB106B100E0CFE700BF00BFFA
:10FFF000BCE7000010540020205400201C540020B6
:020000040002F8
:1000000018540020145400202DE9F04704460E46F1
:100010009046002722E0384601F0C0F905463846F0
:1000200001F0C3F981462046294642580AB101220F
:1000300000E0002282B14846D4F80413014009B11F
:10004000012100E0002139B12946204601F0B2F932
:100050002846D6E900219047781CC7B24745DADB2D
:10006000BDE8F08710B50446204600F0FBFB0449CC
:100070000968084008B1012010BD0020FCE700001D
:10008000BC53002070B50446204600F0EBFB05464B
:10009000FEF794F970BD000001464888064A1288B0
:1000A000904206DB4888044A5288904201DC0120D5
:1000B00070470020FCE700007053002010B5044694
:1000C000204600F0CFFB0349084008B1012010BDD5
:1000D0000020FCE7FF3F0F0030B504461088C01C2D
:1000E000984201D90C2030BD02201588485510884F
:1000F000401C10801C20158848551088401C10801A
:10010000012C06D0022C08D0032C0AD0042C10D1CC
:100110000BE00020158848550DE001201588485552
:1001200009E002201588485505E003201588485548
:1001300001E00720D7E700BF1088401C1080002096
:10014000D1E7000010B504460448007800F0010033
:1001500018B103480078FEF7A5FF10BD3453002006
:100160002C5300202DE9F0412148D0F8008021488F
:1001700006782FE02048006800EBC604257825E0CB
:1001800005EB4501606800EBC107681CC5B2A078AB
:10019000A84200D100253878022802D0032812D1C5
:1001A00003E0786802F04EFC0EE007E010490868B2
:1001B000002101740E4AC169116000BF0C4800683B
:1001C0000028F3D100E000BF00BF00BF6078A84264
:1001D000D6D100BF301EA6F10101CEB2CAD104486B
:1001E0000068404502D00120BDE8F0810020FBE717
:1001F000E8530020E0530020E45300202DE9F047AD
:1002000006463B48D0F800903A48077861E03A4803
:10021000006800EBC70555E016B13446E66923E0F7
:100220002A7802EB4202696801EBC2002978491C76
:1002300029702978AA78914201D100212970446857
:100240000178012901D1217C01B13BE08168616025
:10025000C168A1600169E1604169A161274909782C
:1002600009B10021616000BF254960680968401A32
:1002700020F07F402349884208D2214960680968FC
:1002800002F039FBA1680844206010E01C48616856
:10029000006802F030FB8046A068404504D9A068A1
:1002A000A0EB0800206001E00020206000BF0020DB
:1002B0006060A060012020740020E061204602F010
:1002C0008DFB00BF002EA7D1287869788842A3D182
:1002D00000BF381EA7F10101CFB298D104480068D1
:1002E000484502D00120BDE8F0870020FBE7000070
:1002F000E8530020E0530020E45300200154002084
:10030000EC530020FFFF7F0008B500BF00231F4A09
:1003100005211846FDF760FE054600BF2E4626B1B2
:1003200000BF3046FDF7FAFD00BF00BF00BF02F07E
:10033000EFFD6846FFF7B4F9FEF794FCFFF792FD76
:1003400002F002FAFDF710FDFFF7E6FA02F074F88A
:1003500001F0A8FF02F05EF80DA0FCF74DFF0320AE
:10036000FEF7FEF9044600BF254625B100BF28462A
:10037000FDF7D4FD00BF00BF00BF012000F0ACF8C6
:1003800000F012FC20BF01F0FBF9F6E7C056002098
:100390000D0A55415254205374617274210D0A00A4
:1003A0002DE9F04105460E4614469846A888871C5C
:1003B0002088801C3844404502D90C20BDE8F081DB
:1003C000FE2F01D90C20F9E7781C21887054208871
:1003D000401C2080FF20218870542088401C2080F1
:1003E00022889119288802F005FF2188084420807E
:1003F000A88800280DDDA86808B90720DEE7AA88CC
:1004000023889819A968FCF78FF82088A9880844E0
:1004100020800020D2E72DE9F84F05460F4614460C
:1004200098462878012804D1687810B90720BDE8DB
:10043000F88F2088801C404508D82878012807D1EB
:100440002088801C69780844404501D90C20EEE7DB
:100450002088A8EB0000801E86B200962188891CA7
:10046000C81969467DDF814600BFB9F1000F01D090
:100470004846DCE700BF2878022806D1BDF8000016
:10048000B04202DC4FF0090A0BE04FF0080A28786E
:10049000012805D16878B04202DC6878009000E05D
:1004A0000096BDF80000FE2801D90C20BFE7BDF87A
:1004B0000000401C218878542088401C208020881F
:1004C00007F800A02088401C20802088BDF800107C
:1004D000084420800020AAE701B506E00098401EED
:1004E000009040F2E730FBF795FF00980028F5D127
:1004F00008BD000070B50B4601461A46002907DA10
:100500005407260E104C01F00F052D1F665503E011
:100510005407250E0D4C655400BF00BF00F01F02AC
:10052000012191400A4A440942F8241000BF00BF4B
:1005300000F01F02012191404209920002F1E022E5
:10054000C2F8001100BF70BD18ED00E000E400E04B
:1005500080E200E00146C1F3073250B2704700006C
:100560002DE9F04705460E46284601F0E7F8F8B1B8
:100570002846FFF719F9083824490F5CBC11032CF1
:100580000BD100BF224800680121A940084008B1F2
:10059000032000E00220804605E0012C01D102206A
:1005A00000E0032080464146284600F02DFE2AE068
:1005B000284601F0CFF830B32846FFF7F5F8044697
:1005C000A00000F5807087B22046124951F8201033
:1005D00041F001020F4941F8202000BF384600F0E9
:1005E00033FE7EB12846FFF7DFF88146FFF794F827
:1005F0008046B8F1000F04D0012101FA04F000F0A8
:100600003DFE00BF00BFBDE8F0870000A45A0020F7
:1006100010050050106500402DE9FC4704460E46C9
:1006200017464FF00008204601F07AF810B14FF05D
:10063000080851E0F27839462046FFF775F805467C
:10064000681C002845D0B07860B100BFA10001F15E
:10065000A041D1F8001721F00200214941F82400FF
:1006600000BF0CE096F80190002000904B46024637
:1006700001460190204600F089FD00BF00BFF078E0
:10068000D0B13078174951F82510174A1140154A52
:1006900042F82510114651F825104FF4F85202EA9D
:1006A00004224FF4403303EA00431A4311430D4A36
:1006B00042F8251000BF0EE0A5F108000B49085CC8
:1006C000317840EA811042B2A5F1080007490A5486
:1006D00001E04FF0040800BF4046BDE8FC87000081
:1006E0000007005010650040FFE0FCFFA45A002006
:1006F000014600BF04480068C84000F0010008B18E
:10070000012070470020FCE71005005010B5134889
:1007100090F8540008B1082010BD002404E02046E1
:1007200001F028F8601CC4B2202CF8DB002404E09F
:100730002046FEF7E1FF601CC4B20C2CF8DB06215A
:100740000846FFF7D7FE4FF0004000F097FD01206C
:10075000024981F854000020DEE70000545A0020CE
:10076000034890F8540008B1012070470020FCE7CE
:10077000545A0020F8B5064600250427164D0024DB
:1007800025E0002000906846FDF766FD204600F059
:1007900069F8284078B12046FFF764FC58B900BFDB
:1007A000204600F05FF80D49096808430B490860CE
:1007B00000BF347000279DF80000FDF753FD07B916
:1007C00007E0204600F04EF88543601CC4B2002DBF
:1007D000D7D100BF3846F8BDFF3F0F00BC53002003
:1007E00070B506460C46154600BF0CB90E2070BD0C
:1007F00000BF00BF0DB90E20F9E700BF3046FFF77C
:100800005DFC08B90720F2E73046FFF72BFC08B97A
:100810000820ECE700BF044840F8364000EBC60073
:10082000456000BF0020E2E710F5014010B5044626
:100830002046FFF727FC08B9072010BD2046FFF728
:100840003DFC28B12046FFF70DFC08B90820F4E76D
:1008500000BF0120A0400249086000BF0020ECE773
:1008600004F5014001460120884070470449097899
:1008700021B90121024A1170002000E08520704753
:10088000B85300202DE9F04781460C4616464FF438
:1008900080374FF4A078002520E03946484600F024
:1008A00003FDA8B14146484600F0F8FC80B1394646
:1008B000484600F0F0FC3946484600F0F2FC41465C
:1008C000484600F0E1FCE8B21B4A52F82410884781
:1008D0007F0008F104001FFA80F86D1CB542DCD3DC
:1008E0004FF480780121484600F0DEFC68B14146B3
:1008F000484600F0D3FC40B14146484600F0C4FCF5
:100900000D4850F82410042088474FF482780221C3
:10091000484600F0C9FC68B14146484600F0BEFCBC
:1009200040B14146484600F0AFFC034850F824105F
:1009300005208847BDE8F087C453002070B5044601
:100940000D46022000F00EFD1E4890F827000128F9
:100950001ED11C48C06820B1022000F009FD112002
:1009600070BD1848C460858200BF4FF4807000F0ED
:10097000E9FC0028F9D04FF4807000F0EDFC294626
:10098000204600F097FC022000F0F2FC0020E7E790
:10099000022000F0EDFC01200A4981F827000846FA
:1009A000446005810020C8602946204600F082FC92
:1009B0004FF4807000F0D0FC002000F0E9FC002033
:1009C000CEE70000A45B002070B505460C46134836
:1009D00090F82700012801D1112070BD0F48163072
:1009E00010F8150030B90D4890F82800401C0B494C
:1009F00081F82800A1790948163000F81510E1792E
:100A000000EB450041702146284600F05BFCE2798E
:100A1000A179284600F08AFC0020DEE7A45B0020D4
:100A200010B50446134890F82700012801D1112081
:100A300010BD1048163010F8140030B10D4890F871
:100A40002800401E0B4981F8280000210948163073
:100A500000F8141000EB44004170002211462046BB
:100A600000F064FC40F2FF72D143204600F044F8ED
:100A70000020DDE7A45B002070B504460D461B484E
:100A800090F8260008B1082070BD0DB90720FBE7DB
:100A900004B9174C1548056020781649086000BF56
:100AA0006078091D086000BF0120104981F8260008
:100AB000002081F8270081F8280008616FF00040CD
:100AC00000F050FC4FF4827000F046FCA178072043
:100AD000FFF710FD022000F04BFC00BF012005498C
:100AE000F039086000BF0020CEE70000A45B0020C2
:100AF0000C350200F07500402DE9F04104460D462A
:100B0000164600BF284666F31F40254901EB041135
:100B1000C86000BF0021204600F030FC074615F5F4
:100B2000006F0DD11F4800696100491C4FF0004261
:100B3000CA4090431B490861384600F013FC0CE0A2
:100B4000184800696100491C4FF00042CA40104338
:100B500014490861384600F00BFC0121204600F0E2
:100B60000DFC074640F2FF7086420BD10D4800692C
:100B70006200F107D14088430A490861384600F015
:100B8000F1FB0BE00748006962004FF00041D140E3
:100B9000084304490861384600F0EAFBBDE8F081EB
:100BA00010750040A45B002010B50024054890F8A3
:100BB000270008B9112402E0042000F0E9FB2046D8
:100BC00010BD0000A45B00202DE9F04105460C4655
:100BD00016461F46204600F0E8FB804627B14146F6
:100BE000286800F0EDFB03E04146286800F0E5FBD3
:100BF000286800F5A86141F8246000BFBDE8F081D5
:100C000010B504460021206800F0E3FB02202179A2
:100C100001EB4101024A02EB8101087210BD0000A4
:100C2000D05B00202DE9F04105460E4617461C46D4
:100C3000DDF818804FF48072B2400123B34042EADD
:100C40000301286800F0BFFB2868D0F80012214398
:100C5000C0F8001200BF43463A4631462846FFF727
:100C6000B3FFBDE8F08100002DE9F04704460D46D2
:100C70009046207900EB4000254901EB8006307A50
:100C800010B10820BDE8F087B8F1000F01D10720AE
:100C9000F8E71DB920791F4901EBC005C6F80080AF
:100CA00068687060002709E0384600F077FB8146ED
:100CB0004946206800F07EFB781CC7B26079B842D4
:100CC000F2DC2068FFF746FC8146E978FFF712FC6A
:100CD00069782068D0F8042561F30102C0F8042582
:100CE00000BFA9782068D0F8082561F30102C0F898
:100CF000082500BF29782068D0F8102561F3030289
:100D0000C0F8102500BF012030720020BAE70000B3
:100D1000D05B00201035020070B504460D46314806
:100D2000C07E08B1082070BD04B92F4C607F2D49EA
:100D300008772046FDF7E4FA2A48456029492069EA
:100D400008600846406880B3267F0846007FC0B12F
:100D50004FF48871254800F078FB4FF490712348D8
:100D600000F073FB4FF49271204800F06EFB4FF4DB
:100D7000A2711E4800F069FB1D491C4800F071FB80
:100D80000DE04FF48E71194800F033FB4FF4A2715F
:100D9000164800F02EFB1749144800F035FB314689
:100DA0000220FFF7A7FB00BF00BF00BF0D48007F78
:100DB00028B100BF08201049086000BF05E000BF4F
:100DC00004200D49086000BF00BF00BF0020054996
:100DD000C875087688750120C8760020887600BF1F
:100DE000A1E70000AC5A0020EC34020000200040D3
:100DF00010030200800002000025004070B5044688
:100E00000D462848007F30B1200C0004B0F1005F8F
:100E100001D0102070BD00262248406868B12148EA
:100E2000007F28B14FF404711F4800F017FB04E065
:100E30004FF401711C4800F0E4FA1A48C07DB0B1CB
:100E40001848007E90B11748406868B11548007F87
:100E500028B14FF40471144800F003FB04E04FF490
:100E60000171114800F0D0FA1120D3E701263EB9F4
:100E70000C48C575C46000200A494876087602E02F
:100E80000848046105760748007F28B132462946A4
:100E9000204600F075F8BDE732462946204600F0AE
:100EA00015F8B7E7AC5A00200020004010B50648FE
:100EB000007F38B90448807E20B900F0BDFD0120D4
:100EC0000149887610BD0000AC5A00202DE9F0479A
:100ED0008046894616462848807E10B90EB900F033
:100EE000ABFD2548406800283FD14FF4A27123484C
:100EF00000F07FFA00BF00BF4FF492711F4800F06E
:100F000071FA05464FF484711C4800F06BFA0746ED
:100F10004FF4A271194800F065FA044617B90CB9EC
:100F2000002DE9D005B904B107E000F0AFFC12488C
:100F3000C07D1149497E8842DDDC00BF00200E499A
:100F4000C87515B10320BDE8F0870CB10F20FAE792
:100F50000948807E20B10021084800F061FA03E0D2
:100F60000421064800F05CFA04E04FF401710348E4
:100F700000F04AFA0020E6E7AC5A002000200040CA
:100F80002DE9F04704460D4690464FF488712648F7
:100F900000F05BFA4FF4A271234800F056FA2248A1
:100FA000C0F834454FF4A7610D5000BFB8F1000FF1
:100FB00003D1002100F05DFA08E020201B490968F8
:100FC0000143194AC2F8001200BF00BF1848406828
:100FD00018BB00BF4FF48871134800F02FFA814608
:100FE0004FF4A271104800F029FA07464FF49271AD
:100FF0000D4800F023FA0646B9F1000F02D10FB9EF
:10100000002EE7D000200A49C87516B10320BDE8BC
:10101000F0870FB10F20FAE704E04FF404710248A3
:1010200000F01FFA0020F2E70020004000220040FC
:10103000AC5A002070B504460D460F48007F30B111
:10104000200C0004B0F1005F01D0102070BD00F052
:1010500093F808B11120F9E70748857584600020EE
:10106000054988820846007F10B100F04DF8EDE791
:1010700000F004F8EAE70000AC5A002010B50024A4
:101080004FF48E711E4800F0B4F908211C4800F09E
:10109000C7F901F0CFFD1B48406878BB12E000BFE4
:1010A0004FF48E71164800F09DF920B91548808ADA
:1010B000B0F5807FF4D11348808AB0F5807F01D0ED
:1010C00001F0B8FD0F48808A0E49897D8842E6DB31
:1010D0000C48808AB0F5807F01D10F240BE000BF5F
:1010E0004FF48E71064800F07DF90028F8D00C21ED
:1010F000034800F095F9002002498875204610BD8C
:1011000000200040AC5A002070B500264FF49071CA
:10111000174800F09AF94FF4AC71154800F095F9B2
:101120001348144B99689A7DC0F844154FF4A9638D
:101130001A5000BF082100F09CF90E484068A8B979
:1011400000BF4FF490710A4800F078F905464FF45B
:10115000AC71074800F072F904460DB9002CF0D0CC
:1011600004B10F2600200349887500BF304670BDCA
:1011700000200040AC5A00200348807D08B10120C7
:1011800070470020FCE70000AC5A0020F0B5DDE914
:10119000054541EA420646EA830646EA042646EA4F
:1011A0000547024E46F82070F0BD000000070050D1
:1011B000F0B5DDE9054541EA420646EA830646EA1E
:1011C000042646EA0547024E46F82070F0BD0000AE
:1011D000000700507CB505460C46002000902346D1
:1011E0000246014601902846FFF7E2FF7CBD1CB590
:1011F000044600200090034601221146019020463B
:10120000FFF7D6FF1CBD0000074A52F8202022F449
:101210004033054A42F8203052F8202042EA014388
:10122000014A42F8203070470007005001218140F8
:10123000014A11607047000008050050014601484E
:10124000084470470060004038B504462046FFF768
:10125000F5FF002101602046FFF7F0FF00680090D5
:1012600000BF38BD10B504462046FFF7E7FF006811
:10127000012800D110BD0020FCE7000001490860F2
:10128000704700000463004008B5002242504258F5
:10129000009200BF08BDC0F848137047024650587E
:1012A0007047C0F8081370470246D2F8040308409C
:1012B00070470000024A1060121D11607047000064
:1012C0002C76004010B50A7802F003024B783024E7
:1012D00004EA03131A438B784FF4E06404EA03230F
:1012E0001A43CB784FF4805404EA03331A430B7942
:1012F0004FF4E02404EA03431A434B794FF480147B
:1013000004EA03531343084A02EB001293608A79FC
:10131000CB79054C04EB00146360034C04EB001420
:10132000226000BF10BD000010750040044B03EBAD
:1013300000135A60024B03EB001319607047000062
:101340001075004001460348085808B10120704755
:101350000020FCE7007000400021014A81507047E6
:1013600000700040014908607047000008730040A9
:10137000014908607047000004730040024609B943
:10138000802000E040200346500003FA00F0704740
:101390000121014A815070470070004001464FF41E
:1013A000A07000EB810080B2704701464FF480309E
:1013B00088407047002242507047C0F808137047B9
:1013C000C0F804137047D0F800228A43C0F8002206
:1013D00070470122425070470146D1F88004C1F89D
:1013E000800470470246505808B101207047002021
:1013F000FCE7002242507047C0F80815C0F81025DD
:101400007047C0F808137047C0F8041370470246CD
:10141000D2F80403084008B1012070470020FCE71F
:10142000012242507047C0F80C15C0F814257047CF
:101430000146D1F88004C1F8800470470246505834
:1014400008B1012070470020FCE70022425070479D
:10145000C0F808154FF4A2631A507047C0F808137B
:101460007047C0F804137047014640F23C504058A2
:10147000704701224250704740F20C53195040F21D
:1014800014531A5070472DE9F04107460D46164691
:10149000002406E000BF285DFCF7C2FE0028FAD158
:1014A000641CB442F6D300BF0A20FCF7B9FE002842
:1014B000FAD1BDE8F08170B505467DB1032D10D19C
:1014C0000220FDF777FD044600BF264626B100BF87
:1014D0003046FCF723FD00BF00BF03E001F04CF9EC
:1014E00000E000BF00BF70BD70B505462888102819
:1014F00006D0112815D0132825D0522845D133E025
:101500000720FDF757FD044600BF264626B100BF61
:101510003046FCF703FD00BF00BFA8881C490880C7
:1015200034E00020FDF746FD044600BF264626B104
:1015300000BF3046FCF7F2FC00BF00BF4FF6FF7063
:101540001349088022E000231A46852110480088AC
:101550007FDF044600BF264626B100BF3046FCF7B9
:10156000DDFC00BF00BF11E000231A461946084801
:101570000088A9DF044600BF264626B100BF3046DA
:10158000FCF7CCFC00BF00BF00E000BF00BF70BD97
:101590008220002070B50546287868B93B210748AD
:1015A000008876DF044600BF264626B100BF3046DD
:1015B000FCF7B4FC00BF00BF70BD0000822000201B
:1015C00010B504460349A2680A60E0684860FEF767
:1015D000D1F910BD7C53002010B50446A0880849FD
:1015E00008800849A2690A60E0694860002006494D
:1015F00008700648C08908B9FEF7BCF910BD0000A4
:101600007A5300207C53002078530020F8590020A2
:101610008A8882827047000070B505464FF6FF70D9
:101620000949088000200949087009480068FCF74A
:101630005BFD044634B10748806918B105488169EB
:101640002046884770BD00007A5300207853002060
:10165000B8340200F85900204FF6FF7282827047BA
:1016600070B50546AC1D20881149C98988421DD135
:10167000608902281AD100BF00BF217B627B41EA4A
:101680000221084600F0010111B1FEF773F90DE0E7
:1016900008480068FCF728FD064636B10448806912
:1016A00018B1034881693046884700BF70BD00000B
:1016B000F8590020B834020070B504460E46B51D36
:1016C0002988208A814212D1688902280FD100BF5F
:1016D00000BF297B6A7B41EA0221084600F0010134
:1016E00011B10120A0750EE00020A0750BE0288844
:1016F000A188884207D1A06928B16A8905F10C0147
:101700002046A369984770BD0246002104E0505C62
:1017100008B101207047491C0629F8D30020F9E7D9
:10172000014605484056012202EBE07008B1012055
:1017300070470020FCE70000845A0020014604485E
:101740004056082801DB012070470020FCE700001C
:10175000845A0020014606484056002805DB04480C
:101760004056082801DA012070470020FCE70000FD
:10177000845A0020FF2201490A547047845A0020ED
:1017800070B548DF044600BF254625B100BF284696
:10179000FCF7C4FB00BF00BF70BD0000014600BFE6
:1017A0000748007800F0040008B90820704700BF1F
:1017B00009B90E20FAE70348407808600020F5E7F1
:1017C000B4530020CC5A0020014908607047000043
:1017D00040150140014800687047000004150140B1
:1017E00010B504460348046006211120FBF7F2FA05
:1017F00010BD00000815014010B54FF480300A49B3
:1018000008600A49C1F804031120FBF7BFFA112050
:10181000FBF7C8FA0120054908602F20FAF736FEC9
:1018200001200349087010BD44130140001001401D
:101830000054002010B51120012181400E4A4309B7
:1018400042F8231000BF4FF480300C4908600C4967
:10185000C1F80803012048602F20FAF717FE012085
:10186000074988600020074908602F20FAF70EFE1C
:1018700000200549087010BD80E100E048130140D8
:1018800000100140EC5300200054002010B5104817
:10189000C07D40B94FF484710E48FFF7AAFD00BF28
:1018A0000D48006810BD4FF484710A48FFF7A1FD90
:1018B00000BF09480068C0B20549C968044A527EA1
:1018C00088540348407E401C0149487600BFE9E740
:1018D000AC5A0020002000401825004030B58FB0E1
:1018E00004460D460020079000BF9DF81C0020F024
:1018F0000F00401C8DF81C009DF81C0020F0F0002B
:1019000010308DF81C0000BF00BF9DF81D0020F0B6
:101910000F00401C8DF81D009DF81D0020F0F00008
:1019200010308DF81D0000BF9DF81E0020F006004D
:10193000801C8DF81E001C2108A8FAF70EFE9DF8E9
:10194000200020F0100010308DF8200000200990B9
:101950000B900C9007A80D9000200E9020788DF829
:1019600006000320ADF804000020009000BF9DF8A1
:10197000000020F00F00401C8DF800009DF80000D2
:1019800020F0F00010308DF8000000BF00BF9DF87F
:10199000010020F00F00401C8DF801009DF80100AF
:1019A00020F0F00010308DF8010000BF9DF802001B
:1019B00020F00600801C8DF802009DF8020020F047
:1019C00008008DF802009DF8020020F010008DF84C
:1019D00002009DF8020020F00100401C8DF802007A
:1019E000142102A8FAF7B9FD01A80290CDF80CD095
:1019F0000120ADF810000020ADF812001420ADF861
:101A00001400608804F10C0302AA08A9A2DF0FB039
:101A100030BD00007FB504460D4601208DF8000062
:101A20008DF8084001950348016842686846904770
:101A30007FBD0000AC5A002010B54FF492710648EB
:101A4000FFF7D7FC4FF484710348FFF7D2FC002165
:101A50000148FFF7E5FC10BD002000402DE9F043F0
:101A60002DED0E8BC3B004464FF4807103A8FAF736
:101A700074FD00269FEDFD0AB0EE408A9FEDFB0A43
:101A8000F0EE409A9FEDF90AB0EE40AA00200BEE6E
:101A9000900A0DEE100A0DEE900A9FEDF40AF0EE9A
:101AA000408A9FEDF20AF0EE40AA9FEDF00AB0EEF8
:101AB00040BA9FEDEF0AB0EE409A0025207800284A
:101AC0007BD1EC480078062878D10020FEF7A8FFEB
:101AD000E949086000BF0846076827B100BF3846DB
:101AE000FCF71CFA00BF00BFE4490120FEF76CFFC1
:101AF000E149086000BF0846076827B100BF3846C3
:101B0000FCF70CFA00BF00BF0120DA490870082179
:101B10006068FEF713FFD849086000BF08460768F1
:101B200027B100BF3846FCF7F9F900BF00BF002518
:101B30000BE0606830F9150000EE100AB8EEC00A3C
:101B400030EE080AB0EE408A6D1C692DF1DB9FED86
:101B5000CC0AC8EE000AB0EE608A18EE100AFAF756
:101B600007FD41EC1E0BB0EE4E0AF0EE6E0AFBF7DD
:101B700067FBB0EE40CAF0EE60CA51EC1C0BFAF7FE
:101B80000AFD08EE100A9FEDBF0AC0EE080AB7EE84
:101B9000000A30EEC00AF0EE408A89EE280AF0EE24
:101BA000408AB2EE040A28EE800AF0EE408ABCEECB
:101BB000E80AF0EE40BA00274CE037E250E04FF080
:101BC000000842E040F2B3207843AF4901EB8000C7
:101BD00000EB880090ED000AF8EE6B0AB4EE600AA4
:101BE000F1EE10FA2FD17F1C40F2B320784301EBC5
:101BF000800000EB880090ED000A10EE109A484635
:101C0000FAF7B6FC41EC1C0B53EC1C2B99480178FD
:101C10009EA0FBF7F1FA4846FAF7AAFC41EC1C0B30
:101C20008DED00CB93480278A0A103A8FBF7F4FA4E
:101C30000646B2B203A9A248FCF7E9FF40F28A20A7
:101C4000FEF74AFC00BF08F1010840F2B3208045CE
:101C5000B8DB7F1C012FB2DB9AA0FBF7CDFAF3E2D1
:101C600084480078012876D1FEF7DAFE82490860C0
:101C700000BF0846076827B100BF3846FCF74EF999
:101C800000BF00BF90490220FEF79EFE7A4908601F
:101C900000BF0846076827B100BF3846FCF73EF989
:101CA00000BF00BF02207349087008216068FEF77A
:101CB00045FE7149086000BF0846076827B100BFAC
:101CC0003846FCF72BF900BF00BF00200BE061682D
:101CD00031F9101000EE101AB8EEC00A30EE290AE1
:101CE000F0EE409A401C6428F1DB9FED780AC9EEC3
:101CF000800AF0EE609A19EE900AFAF739FC41EC8E
:101D00001E0BB0EE4E0AF0EE6E0AFBF799FAB0EE3B
:101D100040CAF0EE60CA51EC1C0BFAF73CFC09EE2D
:101D2000900A9FED580AC0EE290AB7EE000A30EE7D
:101D3000C00AF0EE40AA89EE2A0AF0EE40AAB2EEFE
:101D4000040A2AEE800AF0EE40AABCEEEA0AF0EE9F
:101D500040DA00274BE050E04FF0000842E040F24C
:101D6000C72078435A4901EB800000EB880090EDD2
:101D7000000AF8EE6D0AB4EE600AF1EE10FA2FD107
:101D80007F1C40F2C720784301EB800000EB880005
:101D900090ED000A10EE109A4846FAF7E9FB41EC84
:101DA0001C0B53EC1C2B334801784AA0FBF724FA98
